:1000000000308A0033280000253084008313000864
:10001000031917280630F800F701F70B0D28F80B25
:100020000C287B30F700F70B1328800B0A280800F8
:100030002308F9002208F800F90CF80CF90CF80C68
:10004000F90C78089500F90C790C3039F70017088D
:10005000CF39770497002830A400FA30A500042097
:10006000A40B2D280800FF30A00083161F149F1436
:100070001F159F1107309C0083131F3083050A3022
:100080008312A50004200030831687008312A0008D
:1000900083168600880083122011200883168700AB
:1000A000831207110C3097000030F80006389200D8
:1000B000FF30831692001F109F141F159F151F13EA
:1000C00083121F139F1783169F1783121F14831603
:1000D000061183120615A3016630A2001820A301A1
:1000E000CC30A20018200130A3003330A200182029
:1000F0000130A3009930A20018200230A300A20111
:1001000018200230A3006630A20018200230A3009D
:10011000CD30A20018200330A3003330A2001820F5
:100120008316061183120611A3016630A20018205F
:10013000A301CC30A20018200130A3003330A2006C
:1001400018200130A3009930A20018200230A3002B
:10015000A20118200230A3006630A200182002304D
:10016000A300CD30A20018200330A3003330A2003A
:060170001820672863005F
:02400E00323F3F
:00000001FF
;PIC16F877A
;CRC=5707  CREATED="08-Ara-21 15:13"
