:1000000000308A00D0280000D630EC3AE51E2536B4
:100010007500243084008313000803191C2806305F
:10002000F800F701F70B1228F80B11287B30F700C6
:10003000F70B1828800B0F2808000B08A4008B135F
:10004000831603178C170C140000000003185028A7
:1000500083120C087F390313A50003170D0803133F
:10006000A60003170F080313A70025080C1E362847
:100070009900260803178D000313270803178F0024
:1000800083168C170C140000000083120313A30BBB
:100090004A284D2883160317502870288316031703
:1000A00083120C0D0E0D7F390313A50003170D08E5
:1000B0000313A60003170F080313A70025080C1E3F
:1000C0005F289900260803178D00031327080317DC
:1000D0008F008D0A03198F0A03100313A30B202826
:1000E000A41B8B178A110A122A29AB010408AA0043
:1000F0002B10831B2B14240EF038A600A607E23E1B
:10010000A700323EA90024080F39A707A707A907AF
:10011000E93EA800A807A807230E0F39A807A907DA
:10012000A80DA90DA909A90D23080F39A907A60D26
:100130000730A5000A30A907A803031C9B28A807BD
:10014000A703031C9F28A707A603031CA328A60731
:10015000A503031CA72825308400831307302A0534
:100160002A1384072930040203192A170008F7000C
:10017000031DC2282A1BC2282A1ACA28AA19C22863
:100180002030C528AA152A123030F70777080C1E30
:10019000C7289900840A2A1FB2288A110A12312915
:1001A000813083169900A630980090308312980011
:1001B000FF30A00083161F149F141F159F110730D6
:1001C0009C0083131F3083050A308312A40009208A
:1001D0000030831687008312A000831686008800F3
:1001E00083122011200883168700831207110C3018
:1001F00097000030F80006389200FF308316920016
:100200001F109F101F119F111F1383121F139F1781
:1002100083169F1783121F141830F8001F08C73960
:1002200078049F001F151F19132983161E088312B7
:10023000A1001E08A2001030F700F70B1D290000D6
:10024000043003178D0000308F00031006300313B5
:10025000A3001D28103084002208A4002108A30058
:1002600075280430A300FA30A4000920A30B332919
:040270000C296300F2
:02400E00323F3F
:00000001FF
;PIC16F877A
;CRC=D2C7  CREATED="15-Ara-21 15:52"
