:1000000002308A00752A0000FF00030E8301A10060
:100010000A08A0008A010408A2007708A300780853
:10002000A4007908A5007A08A600831383128B1E0A
:100030001B280B192C28220884002308F700240809
:10004000F8002508F9002608FA0020088A00210E89
:100050008300FF0E7F0E09008A110A122F283C3000
:100060008100A70A0319A80A0B118A110A121B287A
:10007000483084008313000803194B280630F80029
:10008000F701F70B4128F80B40287B30F700F70BFE
:100090004728800B3E2808008E30F7004908F800FA
:1000A0004808F900FA01F808031D60287908F800EB
:1000B000F9010830F702F808031D6028F7016828E5
:1000C0000310F81B6728F90DF80DF7036028F813E3
:1000D000080048080319D928D0004C080319D9286A
:1000E000D00703187A287F30D002031CD9280319BF
:1000F000D9287E288130D0070318D9285008F70066
:10010000F801F901FA014908D400D4174A08D300CC
:100110004B08D2001830D000D101521CA7284F083C
:10012000FA07031C9928F90A031D9928F80A0319EC
:10013000D1174E08F907031CA028F80A0319D11794
:100140004D08CA00CA174A08F8070318D117D10D7D
:10015000F80CF90CFA0CD40CD30CD20C0310D00B05
:100160008C280130F7070318D928F81BBE28D40DB6
:10017000FA0DF90DF80DF7030319D928D41FCF286C
:10018000FA0A031DCF28F90A031DCF28F80A031D18
:10019000CF28F80CF90CFA0CF70A0319D9284908EA
:1001A000D1004D08D106D11FD728F817DD28F81344
:1001B000DD28F701F801F901FA0108008030831801
:1001C000D106D601D7014D08D5005108D5064C08F7
:1001D0000319CE29D400F70050080319D729D402F7
:1001E00003197329031C31295108DA00DA17520860
:1001F000D9005308D800D7010310DA0CD90CD80C59
:10020000D70CD40BFB28D51F08295614EB29561000
:10021000541056164F3084008313002A5612D51BF3
:100220001B29541C2629DA0CD90CD80CD70CF70A38
:100230000319E6292629DA1B29290310D70DD80D21
:10024000D90DDA0DF7030319E6291B29561793294F
:1002500056134D08D500D51F2F29DA17DF29DA13D9
:10026000DF295008D400F7004C08D4024D08DA000A
:10027000DA174E08D9004F08D800D7010310DA0C5E
:10028000D90CD80CD70CD40B3D29D51F4A29D6142C
:10029000EB29D6105410D616533084008313002A4D
:1002A000D612D51B5D29541C6829DA0CD90CD80C40
:1002B000D70CF70A0319E6296829DA1B6B29031002
:1002C000D70DD80DD90DDA0DF7030319E6295D29ED
:1002D000D6179329D6135108D500D51F7129DA17DF
:1002E000DF29DA13DF295108DA00DA175208D900BA
:1002F0005308D800D51F8029DA135615EB2956115B
:10030000D70154104F3084008313002AD51BA9292C
:100310004D08D500541C9329DA0CD90CD80CD70CF5
:10032000F70A0319E629D71FA429D80A031DA4290F
:10033000D90A031DA429DA0A031DA429DA0CD90C51
:10034000D80CF70A0319E629561B2829D61B6A2957
:10035000C8298030DA06DA1FB129EB295108D50007
:10036000BE294D08D500DA08031DBE29D908031D92
:10037000BE29D808031DBE29F701DF29DA1BC829C9
:100380000310D70DD80DD90DDA0DF70BBE29E629CC
:10039000D51FCC29DA17DF29DA13DF295008F70037
:1003A0005108DA005208D9005308D800DF294C0858
:1003B000F7004D08DA004E08D9004F08D8005A0857
:1003C000F8005908F9005808FA001E2AF701F80148
:1003D000F901FA011E2AD701D809D909DA09D70982
:1003E000D70A031DF929D80A031DF929D90A0319C7
:1003F000DA0A56180729D618492956197F29AE292D
:100400000008D807031C0A2AD90A031D0A2ADA0A97
:100410000319541484030008D907031C122ADA0AAA
:100420000319541484030008801F803ADA07031864
:100430005414561A0E29D61A50298629080049083C
:10044000D0004D08D006D01F2A2A03110310C91B63
:1004500003145D2A4908D0004C08D1004808D10295
:100460000319382AD01F5D2A0308013A83005D2A48
:100470004D08D1004908D1020319442AD01F5D2A32
:100480000308013A83005D2A4E08D1004A08D102D0
:100490000319502AD01F5D2A0308013A83005D2A00
:1004A0004F08D1004B08D10203195C2AD01F5D2AE6
:1004B0000308013A83005D2A031008001030CC00C5
:1004C000F701FA01C90CC80C031C6C2A4A08F7078B
:1004D0000318FA0A4B08FA07FA0CF70CF90CF80C97
:1004E000CC0B622A8A110A12E12B81308316990003
:1004F000A6309800903083129800A801A701FF3021
:10050000A90083161F149F141F159F1107309C000C
:1005100083131F308305003087008312A9008316E0
:100520008600880083122911290883168700831208
:1005300007110C3097000030F80006389200FF30A9
:10054000831692003C308312810083160108C03963
:100550000738810083128B16C0308B0483161F105E
:100560009F101F119F111F1383121F139F178316B4
:100570009F1783121F14B901B8013430B7008530BA
:10058000B600C101C0012030BF008430BE000A3077
:10059000C80038201830F8001F08C73978049F00B9
:1005A0001F151F19D12A1E08FA0083161E08831270
:1005B000C8001E08C9004C207A08AD007908AC00BC
:1005C0007808AB007708AA002D08B1002C08B0000D
:1005D0002B08AF002A08AE006430C800382018305D
:1005E000F8001F08C73978049F001F151F19F62A45
:1005F0001E08FA0083161E088312C8001E08C900D0
:100600004C207A08AD007908AC007808AB00770878
:10061000AA001030F700F70B0B2B00004830CB007E
:10062000E130CA007A30C9007C30C8002D08CF0004
:100630002C08CE002B08CD002A08CC0069207A08AF
:10064000CB007908CA007808C9007708C80083146D
:100650007A08CF007908CE007808CD007708CC0062
:10066000D301D201D1018430D000DE207A08B50058
:100670007908B4007808B3007708B2008314390809
:10068000CF003808CE003708CD003608CC0035083A
:10069000D3003408D2003308D1003208D000DE2065
:1006A0007A08BD007908BC007808BB007708BA005A
:1006B0003D08CB003C08CA003B08C9003A08C80006
:1006C0004108CF004008CE003F08CD003E08CC00D6
:1006D00069207A08C5007908C4007808C300770843
:1006E000C2004508CB004408CA004308C9004208BC
:1006F000C800CF01CE01CD01CC011F22031C9C2BD1
:10070000CB01CA018030C9007F30C8004508CF0046
:100710004408CE004308CD004208CC0069207A0886
:10072000C5007908C4007808C3007708C2008316A2
:10073000861083128610AF2BCB01CA01C901C801F4
:100740004508CF004408CE004308CD004208CC0045
:100750001F22031CAF2B8316861083128614CB0135
:10076000CA017F30C9008630C8004508CF00440860
:10077000CE004308CD004208CC001F22031CC62B2C
:10078000C501C4017F30C3008630C2004308F900B0
:100790004208F800F90CF80CF90CF80CF90C780880
:1007A0009500F90C790C3039F7001708CF39770428
:1007B00097002808C9002708C800CB010A30CA00E2
:0E07C0005E2A7908C7007808C600EF2A630099
:02400E00323F3F
:00000001FF
;PIC16F877A
;CRC=F160  CREATED="22-Ara-21 16:48"
